{
    "_format": "hh-sol-artifact-1",
    "contractName": "StateManage",
    "sourceName": "contracts/StateManage.sol",
    "abi": [
        {
            "inputs": [],
            "name": "CannotRemoveSelf",
            "type": "error"
        },
        {
            "inputs": [],
            "name": "NameSpacesAlreadyExists",
            "type": "error"
        },
        {
            "inputs": [],
            "name": "NameSpacesNotExists",
            "type": "error"
        },
        {
            "inputs": [],
            "name": "Unauthorized",
            "type": "error"
        },
        {
            "inputs": [],
            "name": "VersionMismatch",
            "type": "error"
        },
        {
            "inputs": [
                {
                    "internalType": "string",
                    "name": "space",
                    "type": "string"
                },
                {
                    "internalType": "address",
                    "name": "newOwner",
                    "type": "address"
                }
            ],
            "name": "addNamespaceOwner",
            "outputs": [],
            "stateMutability": "nonpayable",
            "type": "function"
        },
        {
            "inputs": [
                {
                    "internalType": "string",
                    "name": "space",
                    "type": "string"
                },
                {
                    "internalType": "address",
                    "name": "owner",
                    "type": "address"
                }
            ],
            "name": "checkNamespaceOwner",
            "outputs": [
                {
                    "internalType": "bool",
                    "name": "",
                    "type": "bool"
                }
            ],
            "stateMutability": "view",
            "type": "function"
        },
        {
            "inputs": [
                {
                    "internalType": "string",
                    "name": "space",
                    "type": "string"
                }
            ],
            "name": "createNameSpace",
            "outputs": [],
            "stateMutability": "nonpayable",
            "type": "function"
        },
        {
            "inputs": [
                {
                    "internalType": "string",
                    "name": "space",
                    "type": "string"
                },
                {
                    "internalType": "string",
                    "name": "key",
                    "type": "string"
                }
            ],
            "name": "read",
            "outputs": [
                {
                    "internalType": "bytes",
                    "name": "value",
                    "type": "bytes"
                },
                {
                    "internalType": "uint256",
                    "name": "version",
                    "type": "uint256"
                }
            ],
            "stateMutability": "view",
            "type": "function"
        },
        {
            "inputs": [
                {
                    "internalType": "string",
                    "name": "space",
                    "type": "string"
                },
                {
                    "internalType": "string[]",
                    "name": "keys",
                    "type": "string[]"
                }
            ],
            "name": "readKVs",
            "outputs": [
                {
                    "internalType": "bytes[]",
                    "name": "values",
                    "type": "bytes[]"
                },
                {
                    "internalType": "uint256[]",
                    "name": "versions",
                    "type": "uint256[]"
                }
            ],
            "stateMutability": "view",
            "type": "function"
        },
        {
            "inputs": [
                {
                    "internalType": "string",
                    "name": "space",
                    "type": "string"
                },
                {
                    "internalType": "address",
                    "name": "ownerToRemove",
                    "type": "address"
                }
            ],
            "name": "removeNamespaceOwner",
            "outputs": [],
            "stateMutability": "nonpayable",
            "type": "function"
        },
        {
            "inputs": [
                {
                    "internalType": "string",
                    "name": "space",
                    "type": "string"
                },
                {
                    "internalType": "string",
                    "name": "key",
                    "type": "string"
                },
                {
                    "internalType": "bytes",
                    "name": "value",
                    "type": "bytes"
                },
                {
                    "internalType": "uint256",
                    "name": "expectedVersion",
                    "type": "uint256"
                }
            ],
            "name": "write",
            "outputs": [],
            "stateMutability": "nonpayable",
            "type": "function"
        },
        {
            "inputs": [
                {
                    "internalType": "string",
                    "name": "space",
                    "type": "string"
                },
                {
                    "internalType": "string[]",
                    "name": "keys",
                    "type": "string[]"
                },
                {
                    "internalType": "bytes[]",
                    "name": "values",
                    "type": "bytes[]"
                },
                {
                    "internalType": "uint256[]",
                    "name": "expectedVersions",
                    "type": "uint256[]"
                }
            ],
            "name": "writeKVs",
            "outputs": [],
            "stateMutability": "nonpayable",
            "type": "function"
        }
    ],
    "bytecode": "0x6080604052348015600f57600080fd5b5061222a8061001f6000396000f3fe608060405234801561001057600080fd5b50600436106100885760003560e01c8063ad5172731161005b578063ad5172731461013b578063b99c6abe14610157578063d0f269f314610173578063f61c3fc81461018f57610088565b80631efce4d01461008d57806358a586c7146100a957806386516a9f146100da5780638c97f99e1461010a575b600080fd5b6100a760048036038101906100a2919061116e565b6101ab565b005b6100c360048036038101906100be91906112b0565b61035f565b6040516100d1929190611531565b60405180910390f35b6100f460048036038101906100ef919061116e565b610640565b6040516101019190611583565b60405180910390f35b610124600480360381019061011f919061159e565b6106b5565b60405161013292919061166f565b60405180910390f35b6101556004803603810190610150919061116e565b61083e565b005b610171600480360381019061016c9190611910565b610aa3565b005b61018d600480360381019061018891906119e7565b610cb8565b005b6101a960048036038101906101a49190611a30565b610e1e565b005b816000816040516101bc9190611b32565b908152602001604051809103902060010160003373ffffffffffffffffffffffffffffffffffffffff1673ffffffffffffffffffffffffffffffffffffffff16815260200190815260200160002060009054906101000a900460ff1661024e576040517f82b4290000000000000000000000000000000000000000000000000000000000815260040160405180910390fd5b3373ffffffffffffffffffffffffffffffffffffffff168273ffffffffffffffffffffffffffffffffffffffff16036102b3576040517f5e03d55f00000000000000000000000000000000000000000000000000000000815260040160405180910390fd5b6000836040516102c39190611b32565b908152602001604051809103902060010160008373ffffffffffffffffffffffffffffffffffffffff1673ffffffffffffffffffffffffffffffffffffffff16815260200190815260200160002060006101000a81549060ff021916905560016000846040516103339190611b32565b908152602001604051809103902060000160008282546103539190611b78565b92505081905550505050565b606080836000816040516103739190611b32565b908152602001604051809103902060010160003373ffffffffffffffffffffffffffffffffffffffff1673ffffffffffffffffffffffffffffffffffffffff16815260200190815260200160002060009054906101000a900460ff16610405576040517f82b4290000000000000000000000000000000000000000000000000000000000815260040160405180910390fd5b835167ffffffffffffffff8111156104205761041f610fe5565b5b60405190808252806020026020018201604052801561045357816020015b606081526020019060019003908161043e5790505b509250835167ffffffffffffffff81111561047157610470610fe5565b5b60405190808252806020026020018201604052801561049f5781602001602082028036833780820191505090505b509150600080866040516104b39190611b32565b9081526020016040518091039020905060005b8551811015610636576000826002018783815181106104e8576104e7611bac565b5b60200260200101516040516104fd9190611b32565b90815260200160405180910390209050600081600001805461051e90611c0a565b905003610558576040518060200160405280600081525086838151811061054857610547611bac565b5b6020026020010181905250610604565b80600001805461056790611c0a565b80601f016020809104026020016040519081016040528092919081815260200182805461059390611c0a565b80156105e05780601f106105b5576101008083540402835291602001916105e0565b820191906000526020600020905b8154815290600101906020018083116105c357829003601f168201915b50505050508683815181106105f8576105f7611bac565b5b60200260200101819052505b806001015485838151811061061c5761061b611bac565b5b6020026020010181815250505080806001019150506104c6565b5050509250929050565b600080836040516106519190611b32565b908152602001604051809103902060010160008373ffffffffffffffffffffffffffffffffffffffff1673ffffffffffffffffffffffffffffffffffffffff16815260200190815260200160002060009054906101000a900460ff16905092915050565b60606000836000816040516106ca9190611b32565b908152602001604051809103902060010160003373ffffffffffffffffffffffffffffffffffffffff1673ffffffffffffffffffffffffffffffffffffffff16815260200190815260200160002060009054906101000a900460ff1661075c576040517f82b4290000000000000000000000000000000000000000000000000000000000815260040160405180910390fd5b6000808660405161076d9190611b32565b90815260200160405180910390206002018560405161078c9190611b32565b908152602001604051809103902090508060000181600101548180546107b190611c0a565b80601f01602080910402602001604051908101604052809291908181526020018280546107dd90611c0a565b801561082a5780601f106107ff5761010080835404028352916020019161082a565b820191906000526020600020905b81548152906001019060200180831161080d57829003601f168201915b505050505091509350935050509250929050565b8160008160405161084f9190611b32565b908152602001604051809103902060010160003373ffffffffffffffffffffffffffffffffffffffff1673ffffffffffffffffffffffffffffffffffffffff16815260200190815260200160002060009054906101000a900460ff166108e1576040517f82b4290000000000000000000000000000000000000000000000000000000000815260040160405180910390fd5b600073ffffffffffffffffffffffffffffffffffffffff168273ffffffffffffffffffffffffffffffffffffffff1603610950576040517f08c379a000000000000000000000000000000000000000000000000000000000815260040161094790611c98565b60405180910390fd5b60008273ffffffffffffffffffffffffffffffffffffffff1631116109aa576040517f08c379a00000000000000000000000000000000000000000000000000000000081526004016109a190611d2a565b60405180910390fd5b60008351116109ee576040517f08c379a00000000000000000000000000000000000000000000000000000000081526004016109e590611d96565b60405180910390fd5b6001600084604051610a009190611b32565b908152602001604051809103902060010160008473ffffffffffffffffffffffffffffffffffffffff1673ffffffffffffffffffffffffffffffffffffffff16815260200190815260200160002060006101000a81548160ff0219169083151502179055506001600084604051610a779190611b32565b90815260200160405180910390206000016000828254610a979190611db6565b92505081905550505050565b83600081604051610ab49190611b32565b908152602001604051809103902060010160003373ffffffffffffffffffffffffffffffffffffffff1673ffffffffffffffffffffffffffffffffffffffff16815260200190815260200160002060009054906101000a900460ff16610b46576040517f82b4290000000000000000000000000000000000000000000000000000000000815260040160405180910390fd5b82518451148015610b58575081518451145b610b97576040517f08c379a0000000000000000000000000000000000000000000000000000000008152600401610b8e90611e36565b60405180910390fd5b60008086604051610ba89190611b32565b9081526020016040518091039020905060005b8551811015610caf57600082600201878381518110610bdd57610bdc611bac565b5b6020026020010151604051610bf29190611b32565b90815260200160405180910390209050848281518110610c1557610c14611bac565b5b6020026020010151816001015414610c59576040517f714f551300000000000000000000000000000000000000000000000000000000815260040160405180910390fd5b858281518110610c6c57610c6b611bac565b5b6020026020010151816000019081610c849190612002565b506001816001016000828254610c9a9190611db6565b92505081905550508080600101915050610bbb565b50505050505050565b6000815111610cfc576040517f08c379a0000000000000000000000000000000000000000000000000000000008152600401610cf390611d96565b60405180910390fd5b60003373ffffffffffffffffffffffffffffffffffffffff163111610d56576040517f08c379a0000000000000000000000000000000000000000000000000000000008152600401610d4d90612120565b60405180910390fd5b60008082604051610d679190611b32565b90815260200160405180910390209050600081600001541115610db6576040517fd1efa51a00000000000000000000000000000000000000000000000000000000815260040160405180910390fd5b60018160010160003373ffffffffffffffffffffffffffffffffffffffff1673ffffffffffffffffffffffffffffffffffffffff16815260200190815260200160002060006101000a81548160ff021916908315150217905550600181600001819055505050565b83600081604051610e2f9190611b32565b908152602001604051809103902060010160003373ffffffffffffffffffffffffffffffffffffffff1673ffffffffffffffffffffffffffffffffffffffff16815260200190815260200160002060009054906101000a900460ff16610ec1576040517f82b4290000000000000000000000000000000000000000000000000000000000815260040160405180910390fd5b6000845111610f05576040517f08c379a0000000000000000000000000000000000000000000000000000000008152600401610efc9061218c565b60405180910390fd5b60008086604051610f169190611b32565b908152602001604051809103902060020185604051610f359190611b32565b9081526020016040518091039020905082816001015414610f82576040517f714f551300000000000000000000000000000000000000000000000000000000815260040160405180910390fd5b83816000019081610f939190612002565b50806001016000815480929190610fa9906121ac565b9190505550505050505050565b6000604051905090565b600080fd5b600080fd5b600080fd5b600080fd5b6000601f19601f8301169050919050565b7f4e487b7100000000000000000000000000000000000000000000000000000000600052604160045260246000fd5b61101d82610fd4565b810181811067ffffffffffffffff8211171561103c5761103b610fe5565b5b80604052505050565b600061104f610fb6565b905061105b8282611014565b919050565b600067ffffffffffffffff82111561107b5761107a610fe5565b5b61108482610fd4565b9050602081019050919050565b82818337600083830152505050565b60006110b36110ae84611060565b611045565b9050828152602081018484840111156110cf576110ce610fcf565b5b6110da848285611091565b509392505050565b600082601f8301126110f7576110f6610fca565b5b81356111078482602086016110a0565b91505092915050565b600073ffffffffffffffffffffffffffffffffffffffff82169050919050565b600061113b82611110565b9050919050565b61114b81611130565b811461115657600080fd5b50565b60008135905061116881611142565b92915050565b6000806040838503121561118557611184610fc0565b5b600083013567ffffffffffffffff8111156111a3576111a2610fc5565b5b6111af858286016110e2565b92505060206111c085828601611159565b9150509250929050565b600067ffffffffffffffff8211156111e5576111e4610fe5565b5b602082029050602081019050919050565b600080fd5b600061120e611209846111ca565b611045565b90508083825260208201905060208402830185811115611231576112306111f6565b5b835b8181101561127857803567ffffffffffffffff81111561125657611255610fca565b5b80860161126389826110e2565b85526020850194505050602081019050611233565b5050509392505050565b600082601f83011261129757611296610fca565b5b81356112a78482602086016111fb565b91505092915050565b600080604083850312156112c7576112c6610fc0565b5b600083013567ffffffffffffffff8111156112e5576112e4610fc5565b5b6112f1858286016110e2565b925050602083013567ffffffffffffffff81111561131257611311610fc5565b5b61131e85828601611282565b9150509250929050565b600081519050919050565b600082825260208201905092915050565b6000819050602082019050919050565b600081519050919050565b600082825260208201905092915050565b60005b8381101561138e578082015181840152602081019050611373565b60008484015250505050565b60006113a582611354565b6113af818561135f565b93506113bf818560208601611370565b6113c881610fd4565b840191505092915050565b60006113df838361139a565b905092915050565b6000602082019050919050565b60006113ff82611328565b6114098185611333565b93508360208202850161141b85611344565b8060005b85811015611457578484038952815161143885826113d3565b9450611443836113e7565b925060208a0199505060018101905061141f565b50829750879550505050505092915050565b600081519050919050565b600082825260208201905092915050565b6000819050602082019050919050565b6000819050919050565b6114a881611495565b82525050565b60006114ba838361149f565b60208301905092915050565b6000602082019050919050565b60006114de82611469565b6114e88185611474565b93506114f383611485565b8060005b8381101561152457815161150b88826114ae565b9750611516836114c6565b9250506001810190506114f7565b5085935050505092915050565b6000604082019050818103600083015261154b81856113f4565b9050818103602083015261155f81846114d3565b90509392505050565b60008115159050919050565b61157d81611568565b82525050565b60006020820190506115986000830184611574565b92915050565b600080604083850312156115b5576115b4610fc0565b5b600083013567ffffffffffffffff8111156115d3576115d2610fc5565b5b6115df858286016110e2565b925050602083013567ffffffffffffffff811115611600576115ff610fc5565b5b61160c858286016110e2565b9150509250929050565b600082825260208201905092915050565b600061163282611354565b61163c8185611616565b935061164c818560208601611370565b61165581610fd4565b840191505092915050565b61166981611495565b82525050565b600060408201905081810360008301526116898185611627565b90506116986020830184611660565b9392505050565b600067ffffffffffffffff8211156116ba576116b9610fe5565b5b602082029050602081019050919050565b600067ffffffffffffffff8211156116e6576116e5610fe5565b5b6116ef82610fd4565b9050602081019050919050565b600061170f61170a846116cb565b611045565b90508281526020810184848401111561172b5761172a610fcf565b5b611736848285611091565b509392505050565b600082601f83011261175357611752610fca565b5b81356117638482602086016116fc565b91505092915050565b600061177f61177a8461169f565b611045565b905080838252602082019050602084028301858111156117a2576117a16111f6565b5b835b818110156117e957803567ffffffffffffffff8111156117c7576117c6610fca565b5b8086016117d4898261173e565b855260208501945050506020810190506117a4565b5050509392505050565b600082601f83011261180857611807610fca565b5b813561181884826020860161176c565b91505092915050565b600067ffffffffffffffff82111561183c5761183b610fe5565b5b602082029050602081019050919050565b61185681611495565b811461186157600080fd5b50565b6000813590506118738161184d565b92915050565b600061188c61188784611821565b611045565b905080838252602082019050602084028301858111156118af576118ae6111f6565b5b835b818110156118d857806118c48882611864565b8452602084019350506020810190506118b1565b5050509392505050565b600082601f8301126118f7576118f6610fca565b5b8135611907848260208601611879565b91505092915050565b6000806000806080858703121561192a57611929610fc0565b5b600085013567ffffffffffffffff81111561194857611947610fc5565b5b611954878288016110e2565b945050602085013567ffffffffffffffff81111561197557611974610fc5565b5b61198187828801611282565b935050604085013567ffffffffffffffff8111156119a2576119a1610fc5565b5b6119ae878288016117f3565b925050606085013567ffffffffffffffff8111156119cf576119ce610fc5565b5b6119db878288016118e2565b91505092959194509250565b6000602082840312156119fd576119fc610fc0565b5b600082013567ffffffffffffffff811115611a1b57611a1a610fc5565b5b611a27848285016110e2565b91505092915050565b60008060008060808587031215611a4a57611a49610fc0565b5b600085013567ffffffffffffffff811115611a6857611a67610fc5565b5b611a74878288016110e2565b945050602085013567ffffffffffffffff811115611a9557611a94610fc5565b5b611aa1878288016110e2565b935050604085013567ffffffffffffffff811115611ac257611ac1610fc5565b5b611ace8782880161173e565b9250506060611adf87828801611864565b91505092959194509250565b600081519050919050565b600081905092915050565b6000611b0c82611aeb565b611b168185611af6565b9350611b26818560208601611370565b80840191505092915050565b6000611b3e8284611b01565b915081905092915050565b7f4e487b7100000000000000000000000000000000000000000000000000000000600052601160045260246000fd5b6000611b8382611495565b9150611b8e83611495565b9250828203905081811115611ba657611ba5611b49565b5b92915050565b7f4e487b7100000000000000000000000000000000000000000000000000000000600052603260045260246000fd5b7f4e487b7100000000000000000000000000000000000000000000000000000000600052602260045260246000fd5b60006002820490506001821680611c2257607f821691505b602082108103611c3557611c34611bdb565b5b50919050565b600082825260208201905092915050565b7f496e76616c696420616464726573730000000000000000000000000000000000600082015250565b6000611c82600f83611c3b565b9150611c8d82611c4c565b602082019050919050565b60006020820190508181036000830152611cb181611c75565b9050919050565b7f4e6577206f776e6572206d7573742068617665206120706f736974697665206260008201527f616c616e63650000000000000000000000000000000000000000000000000000602082015250565b6000611d14602683611c3b565b9150611d1f82611cb8565b604082019050919050565b60006020820190508181036000830152611d4381611d07565b9050919050565b7f4e616d6573706163652063616e6e6f7420626520656d70747900000000000000600082015250565b6000611d80601983611c3b565b9150611d8b82611d4a565b602082019050919050565b60006020820190508181036000830152611daf81611d73565b9050919050565b6000611dc182611495565b9150611dcc83611495565b9250828201905080821115611de457611de3611b49565b5b92915050565b7f496e76616c696420696e707574206c656e677468000000000000000000000000600082015250565b6000611e20601483611c3b565b9150611e2b82611dea565b602082019050919050565b60006020820190508181036000830152611e4f81611e13565b9050919050565b60008190508160005260206000209050919050565b60006020601f8301049050919050565b600082821b905092915050565b600060088302611eb87fffffffffffffffffffffffffffffffffffffffffffffffffffffffffffffffff82611e7b565b611ec28683611e7b565b95508019841693508086168417925050509392505050565b6000819050919050565b6000611eff611efa611ef584611495565b611eda565b611495565b9050919050565b6000819050919050565b611f1983611ee4565b611f2d611f2582611f06565b848454611e88565b825550505050565b600090565b611f42611f35565b611f4d818484611f10565b505050565b5b81811015611f7157611f66600082611f3a565b600181019050611f53565b5050565b601f821115611fb657611f8781611e56565b611f9084611e6b565b81016020851015611f9f578190505b611fb3611fab85611e6b565b830182611f52565b50505b505050565b600082821c905092915050565b6000611fd960001984600802611fbb565b1980831691505092915050565b6000611ff28383611fc8565b9150826002028217905092915050565b61200b82611354565b67ffffffffffffffff81111561202457612023610fe5565b5b61202e8254611c0a565b612039828285611f75565b600060209050601f83116001811461206c576000841561205a578287015190505b6120648582611fe6565b8655506120cc565b601f19841661207a86611e56565b60005b828110156120a25784890151825560018201915060208501945060208101905061207d565b868310156120bf57848901516120bb601f891682611fc8565b8355505b6001600288020188555050505b505050505050565b7f4e65656420746f206861766520736f6d652062616c616e636500000000000000600082015250565b600061210a601983611c3b565b9150612115826120d4565b602082019050919050565b60006020820190508181036000830152612139816120fd565b9050919050565b7f4b65792063616e6e6f7420626520656d70747900000000000000000000000000600082015250565b6000612176601383611c3b565b915061218182612140565b602082019050919050565b600060208201905081810360008301526121a581612169565b9050919050565b60006121b782611495565b91507fffffffffffffffffffffffffffffffffffffffffffffffffffffffffffffffff82036121e9576121e8611b49565b5b60018201905091905056fea2646970667358221220576c98aac8b90258ccf328394850044525a3602289bc35e17c16967a12b7c3ff64736f6c634300081c0033",
    "linkReferences": {},
    "deployedLinkReferences": {}
}